:020000042000DA
:10000000B8380020C901002019060020F70300209D
:10001000150600207F020020350D002000000000A2
:10002000000000000000000000000000B3060020F7
:1000300083020020000000001B060020F1070020C2
:10004000E3010020E3010020E3010020E3010020A0
:10005000E3010020E3010020E3010020E301002090
:10006000E3010020E3010020E3010020E301002080
:10007000E3010020E3010020E3010020E301002070
:10008000E3010020E3010020E3010020E301002060
:10009000E3010020E3010020E3010020E301002050
:1000A000E3010020E3010020E3010020E301002040
:1000B000E3010020E3010020E3010020E301002030
:1000C000E3010020E3010020E3010020E301002020
:1000D000E3010020E3010020E3010020E301002010
:1000E000E3010020E3010020E301002000F002F81A
:1000F00000F05AF80AA090E8000C82448344AAF168
:100100000107DA4501D100F04FF8AFF2090EBAE865
:100110000F0013F0010F18BFFB1A43F0010318473B
:10012000D40C0000F40C00000A444FF0000C10F84E
:10013000013B13F0070408BF10F8014B1D1108BF65
:1001400010F8015B641E05D010F8016B641E01F805
:10015000016BF9D113F0080F1EBF10F8014BAD1C55
:100160000C1B09D16D1E58BF01F801CBFAD505E073
:1001700014F8016B01F8016B6D1EF9D59142D6D3CD
:10018000704700000023002400250026103A28BFF5
:1001900078C1FBD8520728BF30C148BF0B607047F9
:1001A0001FB51FBD10B510BD00F036F81146FFF7A2
:1001B000F7FF00F0C1FD00F054F803B4FFF7F2FFC1
:1001C00003BC00F055F80000094880470948004783
:1001D000FEE7FEE7FEE7FEE7FEE7FEE7FEE7FEE7F7
:1001E000FEE7FEE704480549054A064B7047000054
:1001F00029080020ED000020B8320020B838002087
:10020000B8340020B83400207047704770470000B1
:1002100000487047583200207546FFF7F9FFAE4698
:1002200005006946534620F00700854618B020B502
:10023000FFF7D8FFBDE820404FF000064FF0000761
:100240004FF000084FF0000B21F00701AC46ACE87E
:10025000C009ACE8C009ACE8C009ACE8C0098D46EB
:1002600070470446AFF300802046FFF7A6FF00006A
:1002700001491820ABBEFEE726000200704700BF10
:10028000FEE7704731B5124800684FF47A71B0FB51
:10029000F1F4204600F082FA08B100BFFEE70D49F4
:1002A000009808604FF0E020006940F001004FF036
:1002B000E021086100BF074800680028FBD14FF02B
:1002C000E020006920F001004FF0E021086138BD16
:1002D00000300020543200202DE9F0410246002574
:1002E0000026002000230024002791F803C00CF012
:1002F0000F0591F803C00CF0100CBCF1000F03D0F7
:1003000091F802C04CEA050591F800C0BCF1000F5D
:1003100031D0146800202BE04FF0010C0CFA00F3F0
:10032000B1F800C00CEA03069E4220D183004FF0D2
:100330000F0C0CFA03F7BC4305FA03FC4CEA040467
:1003400091F803C0BCF1280F06D14FF0010C0CFA54
:1003500000FCC2F814C00AE091F803C0BCF1480FD9
:1003600005D14FF0010C0CFA00FCC2F810C0401C83
:100370000828D1D31460B1F800C0BCF1FF0F34DD00
:10038000546800202EE000F1080C4FF0010808FA34
:100390000CF3B1F800C00CEA03069E4221D18300A1
:1003A0004FF00F0C0CFA03F7BC4305FA03FC4CEAC0
:1003B000040491F803C0BCF1280F05D100F1080C2A
:1003C00008FA0CF8C2F8148091F803C0BCF1480F89
:1003D00007D100F1080C4FF0010808FA0CF8C2F838
:1003E0001080401C0828CED35460BDE8F0814161E4
:1003F00070470161704700BFFEE7000000B587B09D
:100400000121042000F00AF9A020ADF80400182012
:100410008DF8070001208DF8060001A93648FFF786
:100420005BFF0121080300F0F9F82820ADF8140063
:100430000020ADF80C000120ADF810000220ADF84E
:100440000E004FF6FF70ADF818004FF44040ADF8C5
:1004500008000020ADF816004FF48270ADF80A00D5
:100460004FF40070ADF8120002A9244800F003F91F
:100470000121224800F0E8F81C20ADF8040010200B
:100480008DF8070001208DF8060001A91A48FFF732
:1004900023FF10211848FFF7ACFF08211648FFF78B
:1004A000A6FF04211448FFF7A4FF00F029F8042157
:1004B0001148FFF79CFF0021212000F06DF800217A
:1004C000C82000F069F80021062000F065F800213E
:1004D000132000F061F80021202000F05DF800F00A
:1004E00025F800210C2000F057F804210248FFF7FE
:1004F00080FF07B000BD000000080140003001404F
:1005000010B508210848FFF772FF00BF3220FFF73F
:10051000B9FE00BF08210448FFF76BFF00BF32207F
:10052000FFF7B0FE00BF10BD0008014070B500210C
:10053000084600F011F800240BE0002505E0012139
:10054000002000F029F8681CC5B2542DF7DB601CB0
:10055000C4B2062CF1DB70BD70B504460D4644F004
:100560008000002100F018F845F04000002100F064
:1005700013F870BD70B505460E4614463146284640
:10058000FFF7EAFF03E0207800F02CF8641C2078E5
:100590000028F8D170BD000070B504460D46042156
:1005A0000E48FFF724FF012D04D110210B48FFF75F
:1005B00020FF03E010210948FFF719FF21460848F2
:1005C00000F057F800BF8021054800F049F80028E6
:1005D000F9D104210148FFF70CFF70BD000801406C
:1005E0000030014070B50446A4F12000C4B20025DB
:1005F0000AE004EB4401064A02EB4101485D012197
:10060000FFF7CAFF681CC5B2062DF2DB70BD000003
:100610001430002000BFFEE77047704729B1064A3A
:1006200092690243044B9A6104E0034A926982434F
:10063000014B9A6170470000001002400149C871E7
:10064000704700000010024021B1028842F04002D1
:10065000028004E002884FF6BF731A4002807047A0
:100660000246002013890B400BB1012000E000205E
:1006700070478181704710B50022028802F4415210
:100680000B884C8823438C882343CC8823430C89D4
:1006900023434C8923438C892343CC8923431A4326
:1006A0000280838B4FF2FF74234083830B8A038283
:1006B00010BD704710B500F001F810BD0CB500205A
:1006C000019000903348006840F480303149086060
:1006D00000BF3048006800F4003000900198401CD2
:1006E0000190009818B90198B0F5A06FF1D1294890
:1006F000006800F4003010B10120009001E00020FB
:1007000000900098012843D12348006840F0100071
:10071000214908600846006820F003000860084688
:10072000006840F0020008601A48406819494860B3
:100730000846406848600846406840F48060486069
:100740000846406820F47C1048600846406840F441
:10075000E81048600846006840F08070086000BFFC
:100760000C48006800F000700028F9D00948406883
:1007700020F00300074948600846406840F0020046
:10078000486000BF0348406800F00C000828F9D119
:100790000CBD0000001002400020024030B50146B0
:1007A000B1F1807F01D3012030BD21F07F40401E98
:1007B0004FF0E022506150170F22002807DA13078C
:1007C0001D0E094B00F00F04241F1D5503E01307F5
:1007D0001C0E064B1C5400BF00204FF0E02290611D
:1007E000072010610020DFE718ED00E000E400E0E2
:1007F00010B500F093FA10BD10B50A4800684FF428
:100800007A71B0FBF1F42046FFF7C8FF08B100BFD2
:10081000FEE74FF0E020006920F001004FF0E021FA
:10082000086110BD0030002010B51348006840F08A
:1008300001001149086008464068104908400E4907
:100840004860084600680E4908400B4908600846A1
:10085000006820F4802008600846406820F4FE000C
:1008600048604FF41F008860FFF724FF4FF00050EE
:100870000449086010BD0000001002400000FFF8AD
:10088000FFFFF6FE08ED00E010B588B03D480068B7
:100890003D49B0FBF1F080B2441E01210846FFF74C
:1008A000BDFE0020ADF81600ADF812006420ADF8D2
:1008B0001400A0B2ADF8100000208DF8180004A9B3
:1008C0004FF0804000F0D8F90020ADF80C004FF454
:1008D0000070ADF80E006020ADF800000820ADF803
:1008E0000A000020ADF808000420ADF80400012043
:1008F000ADF802003220ADF806006946400700F06E
:100900005FF80821C80600F0A7F81420ADF806002B
:100910006946000700F0AAF80821C80600F0F8F8B8
:100920004620ADF8060069464FF0804000F0FEF822
:100930000821C80600F04AF95A20ADF806006946B9
:10094000400700F04DF90821C80600F087F90121A1
:10095000880700F01DF80121880700F025F8012123
:100960000420FFF75BFE18208DF81F000F20ADF864
:100970001C0003208DF81E0007A90448FFF7ACFCFB
:1009800008B010BD00300020009F24000008014086
:1009900021B1028842F08002028004E002884FF612
:1009A0007F731A400280704721B1028842F0010231
:1009B000028004E002884FF6FE731A4002807047FE
:1009C00070B5002400220023058C4FF6FE763540DA
:1009D0000584028C8388048B4FF68F752C40B51EDE
:1009E0002C400D882C43751E2A400D892A434D88C2
:1009F0002A43144DA8420BD0134DA84208D0134DE2
:100A0000A84205D0124DA84202D0124DA84213D1DF
:100A10004FF6F7752A404D892A434FF6FB752A4059
:100A20008D882A434FF6FF652B404FF6FF552B402C
:100A30008D892B43CD892B4383800483CD88858684
:100A4000028470BD002C0140003401400040014090
:100A500000440140004801400A460021018B4FF646
:100A6000F7731940114301837047000070B50024EB
:100A700000220023058C4FF6EF7635400584028C6A
:100A80008388048B48F6FF752C404FF6FF452C40B9
:100A90000D884FF6FF7606EA05252C434FF6DF75E5
:100AA0002A400D8906EA05152A434D8806EA0515F0
:100AB0002A43154DA84202D0144DA8421DD14FF62D
:100AC0007F752A404D894FF6FF7606EA05152A43C1
:100AD0004FF6BF752A408D8806EA05152A434FF662
:100AE000FF352B404FF2FF752B408D8906EA8505B7
:100AF0002B43CD8906EA85052B4383800483CD886B
:100B00000587028470BD0000002C014000340140C4
:100B10000A460021018B4FF2FF7319404FF6FF7315
:100B200003EA0223194301837047000070B50024D3
:100B300000220023058C4FF6FF6635400584028CA9
:100B40008388848B4FF68F752C404FF6FC752C40B4
:100B50000D882C434FF6FF552A400D894FF6FF763E
:100B600006EA05252A434D8806EA05252A43154D40
:100B7000A84202D0144DA8421DD14FF2FF752A4061
:100B80004D894FF6FF7606EA05252A434FF6FF35D5
:100B90002A408D8806EA05252A434EF6FF752B402C
:100BA0004DF6FF752B408D8906EA05152B43CD893F
:100BB00006EA05152B4383808483CD8885870284CC
:100BC00070BD0000002C0140003401400A460021A5
:100BD000818B4FF6F77319401143818370470000F2
:100BE00070B5002200230024058C4EF6FF763540B8
:100BF0000584038C8488828B48F6FF752A404FF663
:100C0000FF452A400D884FF6FF7606EA05252A4360
:100C10004DF6FF752B400D8906EA05352B434D88AF
:100C200006EA05352B430B4DA84202D00A4DA842D7
:100C300008D14BF6FF752C408D894FF6FF7606EAFA
:100C400085152C4384808283CD88A0F8405003848E
:100C500070BD0000002C0140003401400A46002114
:100C6000818B4FF2FF7319404FF6FF7303EA0223A3
:100C70001943818370470000002202881D4B98426F
:100C80000ED01D4B98420BD0B0F1804F08D01B4BBB
:100C9000984205D01A4B984202D01A4B984204D180
:100CA0004FF68F731A404B881A43174B984207D060
:100CB000164B984204D04FF6FF431A40CB881A4394
:100CC00002808B8883850B8803850A4B98420BD062
:100CD000094B984208D00E4B984205D00D4B9842D4
:100CE00002D00D4B984201D10B7A038601238382F7
:100CF00070470000002C0140003401400004004017
:100D000000080040000C00400010004000140040AB
:100D10000040014000440140004801400448006890
:100D200020B103480068401E014908607047000078
:100D30005432002000BFFEE708B5FFF775FDFFF74E
:100D40005BFD01210420FFF769FC18208DF80300EA
:100D50004FF48070ADF8000003208DF80200694662
:100D60001C48FFF7B9FA0720FFF768FC01211020A3
:100D7000FFF754FC10208DF803004002ADF800008E
:100D800003208DF8020069461348FFF7A5FAFFF724
:100D90007BFDFFF733FB11A200210846FFF7EAFBBA
:100DA00011A201210020FFF7E5FB11E04FF40051F3
:100DB0000948FFF71EFB4FF4FA70FFF763FA4FF490
:100DC00000510548FFF713FB4FF4FA70FFF75AFA8A
:100DD000ECE70000000801400010014031323334DC
:100DE0003536373839300000444853534741363799
:100DF00038393000140E0020003000205802000066
:100E000028010020F40F0020583200206006000066
:100E1000840100201184A24A0490090102030406FF
:100E2000070809425F1A0702111B147F02111624DA
:100E30002A7F2A1216231308646226364955225047
:100E4000430503341C22411C41221C2A15083E087C
:100E5000141A080622083350302A08012133606032
:100E6000162010080402263E5149453E1C427F4090
:100E7000051561514946162141454B31161814128A
:100E80007F10162745454539163C4A4949301C0113
:100E900071096216364949493626064949291E43D1
:100EA00036362A56062B0814782A1401297E131484
:100EB0000816020151090616324979413E167E1183
:100EC00011117E3A7F3C163E414141221A7F053A7C
:100ED0001C1212411E7F09090901181449497A1A86
:100EE0007FA11A7F421A7F4E1E2040413F011229E6
:100EF0005B1B7F400111167F020C027F3E7F0408BE
:100F0000107F483A3E3C1A060C1C51215E0C141905
:100F100029461A465412311601017F01011A3F3544
:100F2000123F1E1F2040201F0C1A380C1663140895
:100F3000146316070870080719EF234543198B211E
:100F40001A02541A20781A417D160402010204295B
:100F50007132401B06068A1554545478167F484453
:100F600044382E38444444200613487F1A38181257
:100F70001816087E0901021D0C52525290250804D1
:100F800004781B447D3B1D2040443D5F34102844C1
:100F90001B417F121C7C04181E3A7C2429481238FD
:100FA000167C141414083E081414187C1812081A1D
:100FB0004854122016043F444020163C4040207CF8
:100FC0001A1CC01A1C0C1430403C2B44284F1D0C1A
:100FD0005050500C1C64544C5B1B0836C0196841BF
:100FE000244136081610080810081D784641468A24
:040FF00021000000DC
:04000005200001C90D
:00000001FF
