:020000040800F2
:1000000078060020CD01000809050008F703000864
:10001000050500087F0200088507000800000000B1
:10002000000000000000000000000000970500082C
:1000300083020008000000000B050008D506000838
:10004000E7010008E7010008E7010008E7010008F0
:10005000E7010008E7010008E7010008E7010008E0
:10006000E7010008E7010008E7010008E7010008D0
:10007000E7010008E7010008E7010008E7010008C0
:10008000E7010008E7010008E7010008E7010008B0
:10009000E7010008E7010008E7010008E7010008A0
:1000A000E7010008E7010008E7010008E701000890
:1000B000E7010008E7010008E7010008E701000880
:1000C000E7010008E7010008E7010008E701000870
:1000D000E7010008E7010008E7010008E701000860
:1000E000E7010008E7010008E7010008E701000850
:1000F000E7010008E7010008E7010008E701000840
:10010000E7010008E7010008E7010008E70100082F
:10011000E7010008E7010008E7010008E70100081F
:10012000E7010008E7010008E7010008E70100080F
:1001300000F002F800F03AF80AA090E8000C8244BF
:100140008344AAF10107DA4501D100F02FF8AFF29C
:10015000090EBAE80F0013F0010F18BFFB1A43F0A5
:1001600001031847CC060000EC060000103A24BF3B
:1001700078C878C1FAD8520724BF30C830C144BF0C
:1001800004680C607047000000230024002500264E
:10019000103A28BF78C1FBD8520728BF30C148BFEA
:1001A0000B6070471FB51FBD10B510BD00F031F8D2
:1001B0001146FFF7F7FF00F017FB00F04FF803B40C
:1001C000FFF7F2FF03BC00F053F800000948804736
:1001D00009480047FEE7FEE7FEE7FEE7FEE7FEE729
:1001E000FEE7FEE7FEE7FEE704480549054A064B41
:1001F000704700000D07000831010008780000205A
:1002000078060020780200207802002070477047AE
:100210007047754600F028F8AE460500694653461B
:1002200020F00700854618B020B5FFF7DDFFBDE8D8
:1002300020404FF000064FF000074FF000084FF04D
:10024000000B21F00701AC46ACE8C009ACE8C009DE
:10025000ACE8C009ACE8C0098D4670470446AFF36E
:1002600000802046FFF7ABFF0048704718000020D1
:1002700001491820ABBEFEE726000200704700BF10
:10028000FEE7704731B5124800684FF47A71B0FB51
:10029000F1F4204600F0F4F908B100BFFEE70D4983
:1002A000009808604FF0E020006940F001004FF036
:1002B000E021086100BF074800680028FBD14FF02B
:1002C000E020006920F001004FF0E021086138BD16
:1002D00000000020140000202DE9F0410246002516
:1002E0000026002000230024002791F803C00CF012
:1002F0000F0591F803C00CF0100CBCF1000F03D0F7
:1003000091F802C04CEA050591F800C0BCF1000F5D
:1003100031D0146800202BE04FF0010C0CFA00F3F0
:10032000B1F800C00CEA03069E4220D183004FF0D2
:100330000F0C0CFA03F7BC4305FA03FC4CEA040467
:1003400091F803C0BCF1280F06D14FF0010C0CFA54
:1003500000FCC2F814C00AE091F803C0BCF1480FD9
:1003600005D14FF0010C0CFA00FCC2F810C0401C83
:100370000828D1D31460B1F800C0BCF1FF0F34DD00
:10038000546800202EE000F1080C4FF0010808FA34
:100390000CF3B1F800C00CEA03069E4221D18300A1
:1003A0004FF00F0C0CFA03F7BC4305FA03FC4CEAC0
:1003B000040491F803C0BCF1280F05D100F1080C2A
:1003C00008FA0CF8C2F8148091F803C0BCF1480F89
:1003D00007D100F1080C4FF0010808FA0CF8C2F838
:1003E0001080401C0828CED35460BDE8F0814161E4
:1003F00070470161704700BFFEE7000000B587B09D
:100400000121042000F082F8A020ADF8040018209B
:100410008DF8070001208DF8060001A93648FFF786
:100420005BFF0121080300F071F83020ADF81400E3
:100430000020ADF80C00ADF81000ADF80E004FF63E
:10044000FF70ADF818004FF44040ADF808000020F0
:10045000ADF816004FF48270ADF80A004FF400704A
:10046000ADF8120002A9254800F077F801212348D1
:1004700000F05CF80121082000F048F80120ADF8F8
:10048000040010208DF8070001208DF8060001A956
:100490001B48FFF721FF01211948FFF7A8FF0121A1
:1004A0000C2000F071F90220FFF7ECFE01210F2073
:1004B00000F06AF96420FFF7E5FE00210F2000F04C
:1004C00063F90220FFF7DEFEFF21092000F05CF94E
:1004D0000220FFF7D7FE07210B2000F055F902207C
:1004E000FFF7D0FE0F210A2000F04EF90220FFF79F
:1004F000C9FE07B000BD0000000801400030014007
:10050000000C014000BFFEE77047704729B1064A62
:1005100092690243044B9A6104E0034A9269824360
:10052000014B9A61704700000010024021B102881F
:1005300042F04002028004E002884FF6BF731A4086
:10054000028070470246002013890B400BB1012046
:1005500000E0002070478181704710B500220288BA
:1005600002F441520B884C8823438C882343CC8867
:1005700023430C8923434C8923438C892343CC890F
:1005800023431A430280838B4FF2FF7423408383FB
:100590000B8A038210BD704710B500F001F810BD42
:1005A0000CB50020019000903348006840F4803082
:1005B0003149086000BF3048006800F40030009006
:1005C0000198401C0190009818B90198B0F5A06FEF
:1005D000F1D12948006800F4003010B101200090EA
:1005E00001E0002000900098012843D123480068D2
:1005F00040F01000214908600846006820F0030020
:1006000008600846006840F0020008601A48406828
:10061000194948600846406848600846406840F408
:10062000806048600846406820F47C1048600846B6
:10063000406840F4E81048600846006840F0807068
:10064000086000BF0C48006800F000700028F9D076
:100650000948406820F003000749486008464068A0
:1006600040F00200486000BF0348406800F00C0002
:100670000828F9D10CBD0000001002400020024003
:1006800030B50146B1F1807F01D3012030BD21F0AA
:100690007F40401E4FF0E022506150170F2200288B
:1006A00007DA13071D0E094B00F00F04241F1D5518
:1006B00003E013071C0E064B1C5400BF00204FF034
:1006C000E0229061072010610020DFE718ED00E0D4
:1006D00000E400E010B500F049F810BD10B50A487C
:1006E00000684FF47A71B0FBF1F42046FFF7C8FFC1
:1006F00008B100BFFEE74FF0E020006920F00100E4
:100700004FF0E021086110BD0000002010B5134833
:10071000006840F00100114908600846406810492F
:1007200008400E494860084600680E4908400B49D9
:1007300008600846006820F4802008600846406889
:1007400020F4FE0048604FF41F008860FFF724FF8C
:100750004FF000600449086010BD00000010024026
:100760000000FFF8FFFFF6FE08ED00E00448006817
:1007700020B103480068401E01490860704700002E
:100780001400002000BFFEE770B504460D460121AD
:100790001348FFF72CFE0520FFF774FD2146114892
:1007A000FFF7D9FE00BF80210E48FFF7CBFE0028DF
:1007B000F9D10520FFF766FD29460A48FFF7CBFE71
:1007C00000BF80210748FFF7BDFE0028F9D10121B5
:1007D0000348FFF70EFE0520FFF754FD70BD000033
:1007E000000C014000300140FFF790FFFFF776FF5B
:1007F000FFF704FE01210846FFF7C6FF0220FFF7BE
:1008000041FD02210846FFF7BFFF0220FFF73AFD36
:1008100003210846FFF7B8FF0220FFF733FD8F21C1
:100820000420FFF7B1FF0220FFF72CFD00BFFEE719
:100830005008000800000020180000006C010008AB
:100840006808000818000020600600008801000801
:1008500000A24A040000000000000000010203049E
:08086000060708090000000072
:0400000508000131BD
:00000001FF
